{
  "_format": "hh-sol-artifact-1",
  "contractName": "Domains",
  "sourceName": "contracts/Domains.sol",
  "abi": [
    {
      "inputs": [
        {
          "internalType": "string",
          "name": "_tld",
          "type": "string"
        }
      ],
      "stateMutability": "payable",
      "type": "constructor"
    },
    {
      "inputs": [],
      "name": "AlreadyRegistered",
      "type": "error"
    },
    {
      "inputs": [
        {
          "internalType": "string",
          "name": "name",
          "type": "string"
        }
      ],
      "name": "InvalidName",
      "type": "error"
    },
    {
      "inputs": [],
      "name": "Unauthorized",
      "type": "error"
    },
    {
      "anonymous": false,
      "inputs": [
        {
          "indexed": true,
          "internalType": "address",
          "name": "owner",
          "type": "address"
        },
        {
          "indexed": true,
          "internalType": "address",
          "name": "approved",
          "type": "address"
        },
        {
          "indexed": true,
          "internalType": "uint256",
          "name": "tokenId",
          "type": "uint256"
        }
      ],
      "name": "Approval",
      "type": "event"
    },
    {
      "anonymous": false,
      "inputs": [
        {
          "indexed": true,
          "internalType": "address",
          "name": "owner",
          "type": "address"
        },
        {
          "indexed": true,
          "internalType": "address",
          "name": "operator",
          "type": "address"
        },
        {
          "indexed": false,
          "internalType": "bool",
          "name": "approved",
          "type": "bool"
        }
      ],
      "name": "ApprovalForAll",
      "type": "event"
    },
    {
      "anonymous": false,
      "inputs": [
        {
          "indexed": true,
          "internalType": "address",
          "name": "from",
          "type": "address"
        },
        {
          "indexed": true,
          "internalType": "address",
          "name": "to",
          "type": "address"
        },
        {
          "indexed": true,
          "internalType": "uint256",
          "name": "tokenId",
          "type": "uint256"
        }
      ],
      "name": "Transfer",
      "type": "event"
    },
    {
      "inputs": [
        {
          "internalType": "address",
          "name": "to",
          "type": "address"
        },
        {
          "internalType": "uint256",
          "name": "tokenId",
          "type": "uint256"
        }
      ],
      "name": "approve",
      "outputs": [],
      "stateMutability": "nonpayable",
      "type": "function"
    },
    {
      "inputs": [
        {
          "internalType": "address",
          "name": "owner",
          "type": "address"
        }
      ],
      "name": "balanceOf",
      "outputs": [
        {
          "internalType": "uint256",
          "name": "",
          "type": "uint256"
        }
      ],
      "stateMutability": "view",
      "type": "function"
    },
    {
      "inputs": [
        {
          "internalType": "string",
          "name": "",
          "type": "string"
        }
      ],
      "name": "domains",
      "outputs": [
        {
          "internalType": "address",
          "name": "",
          "type": "address"
        }
      ],
      "stateMutability": "view",
      "type": "function"
    },
    {
      "inputs": [
        {
          "internalType": "string",
          "name": "name",
          "type": "string"
        }
      ],
      "name": "getAddress",
      "outputs": [
        {
          "internalType": "address",
          "name": "",
          "type": "address"
        }
      ],
      "stateMutability": "view",
      "type": "function"
    },
    {
      "inputs": [],
      "name": "getAllNames",
      "outputs": [
        {
          "internalType": "string[]",
          "name": "",
          "type": "string[]"
        }
      ],
      "stateMutability": "view",
      "type": "function"
    },
    {
      "inputs": [
        {
          "internalType": "uint256",
          "name": "tokenId",
          "type": "uint256"
        }
      ],
      "name": "getApproved",
      "outputs": [
        {
          "internalType": "address",
          "name": "",
          "type": "address"
        }
      ],
      "stateMutability": "view",
      "type": "function"
    },
    {
      "inputs": [
        {
          "internalType": "string",
          "name": "name",
          "type": "string"
        }
      ],
      "name": "getRecord",
      "outputs": [
        {
          "internalType": "string",
          "name": "",
          "type": "string"
        }
      ],
      "stateMutability": "view",
      "type": "function"
    },
    {
      "inputs": [
        {
          "internalType": "address",
          "name": "owner",
          "type": "address"
        },
        {
          "internalType": "address",
          "name": "operator",
          "type": "address"
        }
      ],
      "name": "isApprovedForAll",
      "outputs": [
        {
          "internalType": "bool",
          "name": "",
          "type": "bool"
        }
      ],
      "stateMutability": "view",
      "type": "function"
    },
    {
      "inputs": [],
      "name": "isOwner",
      "outputs": [
        {
          "internalType": "bool",
          "name": "",
          "type": "bool"
        }
      ],
      "stateMutability": "view",
      "type": "function"
    },
    {
      "inputs": [],
      "name": "name",
      "outputs": [
        {
          "internalType": "string",
          "name": "",
          "type": "string"
        }
      ],
      "stateMutability": "view",
      "type": "function"
    },
    {
      "inputs": [
        {
          "internalType": "uint256",
          "name": "",
          "type": "uint256"
        }
      ],
      "name": "names",
      "outputs": [
        {
          "internalType": "string",
          "name": "",
          "type": "string"
        }
      ],
      "stateMutability": "view",
      "type": "function"
    },
    {
      "inputs": [
        {
          "internalType": "uint256",
          "name": "tokenId",
          "type": "uint256"
        }
      ],
      "name": "ownerOf",
      "outputs": [
        {
          "internalType": "address",
          "name": "",
          "type": "address"
        }
      ],
      "stateMutability": "view",
      "type": "function"
    },
    {
      "inputs": [
        {
          "internalType": "string",
          "name": "name",
          "type": "string"
        }
      ],
      "name": "price",
      "outputs": [
        {
          "internalType": "uint256",
          "name": "",
          "type": "uint256"
        }
      ],
      "stateMutability": "pure",
      "type": "function"
    },
    {
      "inputs": [
        {
          "internalType": "string",
          "name": "",
          "type": "string"
        }
      ],
      "name": "records",
      "outputs": [
        {
          "internalType": "string",
          "name": "",
          "type": "string"
        }
      ],
      "stateMutability": "view",
      "type": "function"
    },
    {
      "inputs": [
        {
          "internalType": "string",
          "name": "name",
          "type": "string"
        }
      ],
      "name": "register",
      "outputs": [],
      "stateMutability": "payable",
      "type": "function"
    },
    {
      "inputs": [
        {
          "internalType": "address",
          "name": "from",
          "type": "address"
        },
        {
          "internalType": "address",
          "name": "to",
          "type": "address"
        },
        {
          "internalType": "uint256",
          "name": "tokenId",
          "type": "uint256"
        }
      ],
      "name": "safeTransferFrom",
      "outputs": [],
      "stateMutability": "nonpayable",
      "type": "function"
    },
    {
      "inputs": [
        {
          "internalType": "address",
          "name": "from",
          "type": "address"
        },
        {
          "internalType": "address",
          "name": "to",
          "type": "address"
        },
        {
          "internalType": "uint256",
          "name": "tokenId",
          "type": "uint256"
        },
        {
          "internalType": "bytes",
          "name": "_data",
          "type": "bytes"
        }
      ],
      "name": "safeTransferFrom",
      "outputs": [],
      "stateMutability": "nonpayable",
      "type": "function"
    },
    {
      "inputs": [
        {
          "internalType": "address",
          "name": "operator",
          "type": "address"
        },
        {
          "internalType": "bool",
          "name": "approved",
          "type": "bool"
        }
      ],
      "name": "setApprovalForAll",
      "outputs": [],
      "stateMutability": "nonpayable",
      "type": "function"
    },
    {
      "inputs": [
        {
          "internalType": "string",
          "name": "name",
          "type": "string"
        },
        {
          "internalType": "string",
          "name": "record",
          "type": "string"
        }
      ],
      "name": "setRecord",
      "outputs": [],
      "stateMutability": "nonpayable",
      "type": "function"
    },
    {
      "inputs": [
        {
          "internalType": "bytes4",
          "name": "interfaceId",
          "type": "bytes4"
        }
      ],
      "name": "supportsInterface",
      "outputs": [
        {
          "internalType": "bool",
          "name": "",
          "type": "bool"
        }
      ],
      "stateMutability": "view",
      "type": "function"
    },
    {
      "inputs": [],
      "name": "symbol",
      "outputs": [
        {
          "internalType": "string",
          "name": "",
          "type": "string"
        }
      ],
      "stateMutability": "view",
      "type": "function"
    },
    {
      "inputs": [],
      "name": "tld",
      "outputs": [
        {
          "internalType": "string",
          "name": "",
          "type": "string"
        }
      ],
      "stateMutability": "view",
      "type": "function"
    },
    {
      "inputs": [
        {
          "internalType": "uint256",
          "name": "tokenId",
          "type": "uint256"
        }
      ],
      "name": "tokenURI",
      "outputs": [
        {
          "internalType": "string",
          "name": "",
          "type": "string"
        }
      ],
      "stateMutability": "view",
      "type": "function"
    },
    {
      "inputs": [
        {
          "internalType": "address",
          "name": "from",
          "type": "address"
        },
        {
          "internalType": "address",
          "name": "to",
          "type": "address"
        },
        {
          "internalType": "uint256",
          "name": "tokenId",
          "type": "uint256"
        }
      ],
      "name": "transferFrom",
      "outputs": [],
      "stateMutability": "nonpayable",
      "type": "function"
    },
    {
      "inputs": [
        {
          "internalType": "string",
          "name": "name",
          "type": "string"
        }
      ],
      "name": "valid",
      "outputs": [
        {
          "internalType": "bool",
          "name": "",
          "type": "bool"
        }
      ],
      "stateMutability": "pure",
      "type": "function"
    },
    {
      "inputs": [],
      "name": "withdraw",
      "outputs": [],
      "stateMutability": "nonpayable",
      "type": "function"
    }
  ],
  "bytecode": "0x6080604052604051806108a0016040528061086b81526020016200558461086b91396009908051906020019062000038929190620002c8565b506040518060400160405280600d81526020017f3c2f746578743e3c2f7376673e00000000000000000000000000000000000000815250600a908051906020019062000086929190620002c8565b5060405162005def38038062005def8339818101604052810190620000ac919062000515565b6040518060400160405280601481526020017f6332746172756e204e616d6520536572766963650000000000000000000000008152506040518060400160405280600381526020017f5441520000000000000000000000000000000000000000000000000000000000815250816000908051906020019062000130929190620002c8565b50806001908051906020019062000149929190620002c8565b505050806008908051906020019062000164929190620002c8565b5033600b60006101000a81548173ffffffffffffffffffffffffffffffffffffffff021916908373ffffffffffffffffffffffffffffffffffffffff160217905550620001f26040518060400160405280601881526020017f2573206e616d652073657276696365206465706c6f796564000000000000000081525082620001f960201b62001c1b1760201c565b5062000663565b6200029b828260405160240162000212929190620005c3565b6040516020818303038152906040527f4b5c4277000000000000000000000000000000000000000000000000000000007bffffffffffffffffffffffffffffffffffffffffffffffffffffffff19166020820180517bffffffffffffffffffffffffffffffffffffffffffffffffffffffff83818316178352505050506200029f60201b60201c565b5050565b60008151905060006a636f6e736f6c652e6c6f679050602083016000808483855afa5050505050565b828054620002d6906200062d565b90600052602060002090601f016020900481019282620002fa576000855562000346565b82601f106200031557805160ff191683800117855562000346565b8280016001018555821562000346579182015b828111156200034557825182559160200191906001019062000328565b5b50905062000355919062000359565b5090565b5b80821115620003745760008160009055506001016200035a565b5090565b6000604051905090565b600080fd5b600080fd5b600080fd5b600080fd5b6000601f19601f8301169050919050565b7f4e487b7100000000000000000000000000000000000000000000000000000000600052604160045260246000fd5b620003e18262000396565b810181811067ffffffffffffffff82111715620004035762000402620003a7565b5b80604052505050565b60006200041862000378565b9050620004268282620003d6565b919050565b600067ffffffffffffffff821115620004495762000448620003a7565b5b620004548262000396565b9050602081019050919050565b60005b838110156200048157808201518184015260208101905062000464565b8381111562000491576000848401525b50505050565b6000620004ae620004a8846200042b565b6200040c565b905082815260208101848484011115620004cd57620004cc62000391565b5b620004da84828562000461565b509392505050565b600082601f830112620004fa57620004f96200038c565b5b81516200050c84826020860162000497565b91505092915050565b6000602082840312156200052e576200052d62000382565b5b600082015167ffffffffffffffff8111156200054f576200054e62000387565b5b6200055d84828501620004e2565b91505092915050565b600081519050919050565b600082825260208201905092915050565b60006200058f8262000566565b6200059b818562000571565b9350620005ad81856020860162000461565b620005b88162000396565b840191505092915050565b60006040820190508181036000830152620005df818562000582565b90508181036020830152620005f5818462000582565b90509392505050565b7f4e487b7100000000000000000000000000000000000000000000000000000000600052602260045260246000fd5b600060028204905060018216806200064657607f821691505b602082108114156200065d576200065c620005fe565b5b50919050565b614f1180620006736000396000f3fe6080604052600436106101815760003560e01c806370a08231116100d1578063bf40fac11161008a578063e985e9c511610064578063e985e9c5146105de578063f2c298be1461061b578063fb825e5f14610637578063fe2c61981461066257610181565b8063bf40fac11461053b578063c1880a9814610578578063c87b56dd146105a157610181565b806370a08231146104195780638f32d59b1461045657806395d89b41146104815780639791c097146104ac578063a22cb465146104e9578063b88d4fde1461051257610181565b8063264492351161013e57806342842e0e1161011857806342842e0e146103395780634622ab0314610362578063541e771d1461039f5780636352211e146103dc57610181565b806326449235146102ba5780632d551432146102f75780633ccfd60b1461032257610181565b806301ffc9a71461018657806306fdde03146101c3578063081812fc146101ee578063095ea7b31461022b57806311dd88451461025457806323b872dd14610291575b600080fd5b34801561019257600080fd5b506101ad60048036038101906101a8919061323b565b61069f565b6040516101ba9190613283565b60405180910390f35b3480156101cf57600080fd5b506101d8610781565b6040516101e59190613337565b60405180910390f35b3480156101fa57600080fd5b506102156004803603810190610210919061338f565b610813565b60405161022291906133fd565b60405180910390f35b34801561023757600080fd5b50610252600480360381019061024d9190613444565b610898565b005b34801561026057600080fd5b5061027b600480360381019061027691906134e9565b6109b0565b6040516102889190613337565b60405180910390f35b34801561029d57600080fd5b506102b860048036038101906102b39190613536565b610a63565b005b3480156102c657600080fd5b506102e160048036038101906102dc91906136b9565b610ac3565b6040516102ee91906133fd565b60405180910390f35b34801561030357600080fd5b5061030c610b0c565b6040516103199190613337565b60405180910390f35b34801561032e57600080fd5b50610337610b9a565b005b34801561034557600080fd5b50610360600480360381019061035b9190613536565b610c60565b005b34801561036e57600080fd5b506103896004803603810190610384919061338f565b610c80565b6040516103969190613337565b60405180910390f35b3480156103ab57600080fd5b506103c660048036038101906103c191906136b9565b610d20565b6040516103d39190613337565b60405180910390f35b3480156103e857600080fd5b5061040360048036038101906103fe919061338f565b610dd6565b60405161041091906133fd565b60405180910390f35b34801561042557600080fd5b50610440600480360381019061043b9190613702565b610e88565b60405161044d919061373e565b60405180910390f35b34801561046257600080fd5b5061046b610f40565b6040516104789190613283565b60405180910390f35b34801561048d57600080fd5b50610496610f98565b6040516104a39190613337565b60405180910390f35b3480156104b857600080fd5b506104d360048036038101906104ce91906134e9565b61102a565b6040516104e09190613283565b60405180910390f35b3480156104f557600080fd5b50610510600480360381019061050b9190613785565b6110de565b005b34801561051e57600080fd5b5061053960048036038101906105349190613866565b6110f4565b005b34801561054757600080fd5b50610562600480360381019061055d91906134e9565b611156565b60405161056f91906133fd565b60405180910390f35b34801561058457600080fd5b5061059f600480360381019061059a91906138e9565b6111a1565b005b3480156105ad57600080fd5b506105c860048036038101906105c3919061338f565b611344565b6040516105d59190613337565b60405180910390f35b3480156105ea57600080fd5b506106056004803603810190610600919061396a565b611496565b6040516106129190613283565b60405180910390f35b610635600480360381019061063091906134e9565b61152a565b005b34801561064357600080fd5b5061064c61199a565b6040516106599190613ab6565b60405180910390f35b34801561066e57600080fd5b50610689600480360381019061068491906134e9565b611b78565b604051610696919061373e565b60405180910390f35b60007f80ac58cd000000000000000000000000000000000000000000000000000000007bffffffffffffffffffffffffffffffffffffffffffffffffffffffff1916827bffffffffffffffffffffffffffffffffffffffffffffffffffffffff1916148061076a57507f5b5e139f000000000000000000000000000000000000000000000000000000007bffffffffffffffffffffffffffffffffffffffffffffffffffffffff1916827bffffffffffffffffffffffffffffffffffffffffffffffffffffffff1916145b8061077a575061077982611cb7565b5b9050919050565b60606000805461079090613b07565b80601f01602080910402602001604051908101604052809291908181526020018280546107bc90613b07565b80156108095780601f106107de57610100808354040283529160200191610809565b820191906000526020600020905b8154815290600101906020018083116107ec57829003601f168201915b5050505050905090565b600061081e82611d21565b61085d576040517f08c379a000000000000000000000000000000000000000000000000000000000815260040161085490613bab565b60405180910390fd5b6004600083815260200190815260200160002060009054906101000a900473ffffffffffffffffffffffffffffffffffffffff169050919050565b60006108a382610dd6565b90508073ffffffffffffffffffffffffffffffffffffffff168373ffffffffffffffffffffffffffffffffffffffff161415610914576040517f08c379a000000000000000000000000000000000000000000000000000000000815260040161090b90613c3d565b60405180910390fd5b8073ffffffffffffffffffffffffffffffffffffffff16610933611d8d565b73ffffffffffffffffffffffffffffffffffffffff16148061096257506109618161095c611d8d565b611496565b5b6109a1576040517f08c379a000000000000000000000000000000000000000000000000000000000815260040161099890613ccf565b60405180910390fd5b6109ab8383611d95565b505050565b6060600d83836040516109c4929190613d1f565b908152602001604051809103902080546109dd90613b07565b80601f0160208091040260200160405190810160405280929190818152602001828054610a0990613b07565b8015610a565780601f10610a2b57610100808354040283529160200191610a56565b820191906000526020600020905b815481529060010190602001808311610a3957829003601f168201915b5050505050905092915050565b610a74610a6e611d8d565b82611e4e565b610ab3576040517f08c379a0000000000000000000000000000000000000000000000000000000008152600401610aaa90613daa565b60405180910390fd5b610abe838383611f2c565b505050565b600c818051602081018201805184825260208301602085012081835280955050505050506000915054906101000a900473ffffffffffffffffffffffffffffffffffffffff1681565b60088054610b1990613b07565b80601f0160208091040260200160405190810160405280929190818152602001828054610b4590613b07565b8015610b925780601f10610b6757610100808354040283529160200191610b92565b820191906000526020600020905b815481529060010190602001808311610b7557829003601f168201915b505050505081565b610ba2610f40565b610bab57600080fd5b600047905060003373ffffffffffffffffffffffffffffffffffffffff1682604051610bd690613dfb565b60006040518083038185875af1925050503d8060008114610c13576040519150601f19603f3d011682016040523d82523d6000602084013e610c18565b606091505b5050905080610c5c576040517f08c379a0000000000000000000000000000000000000000000000000000000008152600401610c5390613e5c565b60405180910390fd5b5050565b610c7b838383604051806020016040528060008152506110f4565b505050565b600e6020528060005260406000206000915090508054610c9f90613b07565b80601f0160208091040260200160405190810160405280929190818152602001828054610ccb90613b07565b8015610d185780601f10610ced57610100808354040283529160200191610d18565b820191906000526020600020905b815481529060010190602001808311610cfb57829003601f168201915b505050505081565b600d818051602081018201805184825260208301602085012081835280955050505050506000915090508054610d5590613b07565b80601f0160208091040260200160405190810160405280929190818152602001828054610d8190613b07565b8015610dce5780601f10610da357610100808354040283529160200191610dce565b820191906000526020600020905b815481529060010190602001808311610db157829003601f168201915b505050505081565b6000806002600084815260200190815260200160002060009054906101000a900473ffffffffffffffffffffffffffffffffffffffff169050600073ffffffffffffffffffffffffffffffffffffffff168173ffffffffffffffffffffffffffffffffffffffff161415610e7f576040517f08c379a0000000000000000000000000000000000000000000000000000000008152600401610e7690613eee565b60405180910390fd5b80915050919050565b60008073ffffffffffffffffffffffffffffffffffffffff168273ffffffffffffffffffffffffffffffffffffffff161415610ef9576040517f08c379a0000000000000000000000000000000000000000000000000000000008152600401610ef090613f80565b60405180910390fd5b600360008373ffffffffffffffffffffffffffffffffffffffff1673ffffffffffffffffffffffffffffffffffffffff168152602001908152602001600020549050919050565b6000600b60009054906101000a900473ffffffffffffffffffffffffffffffffffffffff1673ffffffffffffffffffffffffffffffffffffffff163373ffffffffffffffffffffffffffffffffffffffff1614905090565b606060018054610fa790613b07565b80601f0160208091040260200160405190810160405280929190818152602001828054610fd390613b07565b80156110205780601f10610ff557610100808354040283529160200191611020565b820191906000526020600020905b81548152906001019060200180831161100357829003601f168201915b5050505050905090565b6000600361107b84848080601f016020809104026020016040519081016040528093929190818152602001838380828437600081840152601f19601f82011690508083019250505050505050612193565b101580156110d65750600a6110d384848080601f016020809104026020016040519081016040528093929190818152602001838380828437600081840152601f19601f82011690508083019250505050505050612193565b11155b905092915050565b6110f06110e9611d8d565b8383612348565b5050565b6111056110ff611d8d565b83611e4e565b611144576040517f08c379a000000000000000000000000000000000000000000000000000000000815260040161113b90613daa565b60405180910390fd5b611150848484846124b5565b50505050565b6000600c838360405161116a929190613d1f565b908152602001604051809103902060009054906101000a900473ffffffffffffffffffffffffffffffffffffffff16905092915050565b600c84846040516111b3929190613d1f565b908152602001604051809103902060009054906101000a900473ffffffffffffffffffffffffffffffffffffffff1673ffffffffffffffffffffffffffffffffffffffff163373ffffffffffffffffffffffffffffffffffffffff1614611246576040517f82b4290000000000000000000000000000000000000000000000000000000000815260040160405180910390fd5b8181600d868660405161125a929190613d1f565b908152602001604051809103902091906112759291906130a6565b5061133e6040518060400160405280601481526020017f2573207265636f72642073657420666f7220257300000000000000000000000081525083838080601f016020809104026020016040519081016040528093929190818152602001838380828437600081840152601f19601f8201169050808301925050505050505086868080601f016020809104026020016040519081016040528093929190818152602001838380828437600081840152601f19601f82011690508083019250505050505050612511565b50505050565b606061134f82611d21565b61138e576040517f08c379a000000000000000000000000000000000000000000000000000000000815260040161138590614012565b60405180910390fd5b60006006600084815260200190815260200160002080546113ae90613b07565b80601f01602080910402602001604051908101604052809291908181526020018280546113da90613b07565b80156114275780601f106113fc57610100808354040283529160200191611427565b820191906000526020600020905b81548152906001019060200180831161140a57829003601f168201915b5050505050905060006114386125b0565b905060008151141561144e578192505050611491565b60008251111561148357808260405160200161146b929190614063565b60405160208183030381529060405292505050611491565b61148c846125c7565b925050505b919050565b6000600560008473ffffffffffffffffffffffffffffffffffffffff1673ffffffffffffffffffffffffffffffffffffffff16815260200190815260200160002060008373ffffffffffffffffffffffffffffffffffffffff1673ffffffffffffffffffffffffffffffffffffffff16815260200190815260200160002060009054906101000a900460ff16905092915050565b600073ffffffffffffffffffffffffffffffffffffffff16600c8383604051611554929190613d1f565b908152602001604051809103902060009054906101000a900473ffffffffffffffffffffffffffffffffffffffff1673ffffffffffffffffffffffffffffffffffffffff16146115d0576040517f3a81d6fc00000000000000000000000000000000000000000000000000000000815260040160405180910390fd5b60006115dc8383611b78565b905080341015611621576040517f08c379a0000000000000000000000000000000000000000000000000000000008152600401611618906140d3565b60405180910390fd5b600083836008604051602001611639939291906141d3565b60405160208183030381529060405290506000600982600a60405160200161166393929190614204565b60405160208183030381529060405290506000611680600761266e565b905060006116d187878080601f016020809104026020016040519081016040528093929190818152602001838380828437600081840152601f19601f82011690508083019250505050505050612193565b905060006116de8261267c565b90506117d2604051806060016040528060318152602001614e376031913989898080601f016020809104026020016040519081016040528093929190818152602001838380828437600081840152601f19601f820116905080830192505050505050506008805461174e90613b07565b80601f016020809104026020016040519081016040528092919081815260200182805461177a90613b07565b80156117c75780601f1061179c576101008083540402835291602001916117c7565b820191906000526020600020905b8154815290600101906020018083116117aa57829003601f168201915b5050505050866127dd565b6000611808866117e18761287f565b846040516020016117f493929190614449565b60405160208183030381529060405261287f565b905060008160405160200161181d9190614513565b604051602081830303815290604052905061184f604051806060016040528060348152602001614e6860349139612a17565b61188e6040518060400160405280601081526020017f46696e616c20746f6b656e5552493a200000000000000000000000000000000081525082611c1b565b6118af604051806060016040528060348152602001614e6860349139612a17565b6118b93386612ab0565b6118c38582612ace565b33600c8b8b6040516118d6929190613d1f565b908152602001604051809103902060006101000a81548173ffffffffffffffffffffffffffffffffffffffff021916908373ffffffffffffffffffffffffffffffffffffffff1602179055508989600e600088815260200190815260200160002091906119449291906130a6565b506119846040518060400160405280601b81526020017f2573206861732072656769737465726564206120646f6d61696e21000000000081525033612b42565b61198e6007612bde565b50505050505050505050565b60606119da6040518060400160405280601f81526020017f47657474696e6720616c6c206e616d65732066726f6d20636f6e747261637400815250612a17565b60006119e6600761266e565b67ffffffffffffffff8111156119ff576119fe61358e565b5b604051908082528060200260200182016040528015611a3257816020015b6060815260200190600190039081611a1d5790505b50905060005b611a42600761266e565b811015611b7057600e60008281526020019081526020016000208054611a6790613b07565b80601f0160208091040260200160405190810160405280929190818152602001828054611a9390613b07565b8015611ae05780601f10611ab557610100808354040283529160200191611ae0565b820191906000526020600020905b815481529060010190602001808311611ac357829003601f168201915b5050505050828281518110611af857611af7614535565b5b6020026020010181905250611b5d6040518060400160405280601781526020017f4e616d6520666f7220746f6b656e20256420697320257300000000000000000081525082848481518110611b5057611b4f614535565b5b6020026020010151612bf4565b8080611b6890614593565b915050611a38565b508091505090565b600080611bc884848080601f016020809104026020016040519081016040528093929190818152602001838380828437600081840152601f19601f82011690508083019250505050505050612193565b905060008111611bd757600080fd5b6003811415611bf05766b1a2bc2ec50000915050611c15565b6004811415611c0957666a94d74f430000915050611c15565b662386f26fc100009150505b92915050565b611cb38282604051602401611c319291906145dc565b6040516020818303038152906040527f4b5c4277000000000000000000000000000000000000000000000000000000007bffffffffffffffffffffffffffffffffffffffffffffffffffffffff19166020820180517bffffffffffffffffffffffffffffffffffffffffffffffffffffffff8381831617835250505050612c93565b5050565b60007f01ffc9a7000000000000000000000000000000000000000000000000000000007bffffffffffffffffffffffffffffffffffffffffffffffffffffffff1916827bffffffffffffffffffffffffffffffffffffffffffffffffffffffff1916149050919050565b60008073ffffffffffffffffffffffffffffffffffffffff166002600084815260200190815260200160002060009054906101000a900473ffffffffffffffffffffffffffffffffffffffff1673ffffffffffffffffffffffffffffffffffffffff1614159050919050565b600033905090565b816004600083815260200190815260200160002060006101000a81548173ffffffffffffffffffffffffffffffffffffffff021916908373ffffffffffffffffffffffffffffffffffffffff160217905550808273ffffffffffffffffffffffffffffffffffffffff16611e0883610dd6565b73ffffffffffffffffffffffffffffffffffffffff167f8c5be1e5ebec7d5bd14f71427d1e84f3dd0314c0f7b2291e5b200ac8c7c3b92560405160405180910390a45050565b6000611e5982611d21565b611e98576040517f08c379a0000000000000000000000000000000000000000000000000000000008152600401611e8f90614685565b60405180910390fd5b6000611ea383610dd6565b90508073ffffffffffffffffffffffffffffffffffffffff168473ffffffffffffffffffffffffffffffffffffffff161480611ee55750611ee48185611496565b5b80611f2357508373ffffffffffffffffffffffffffffffffffffffff16611f0b84610813565b73ffffffffffffffffffffffffffffffffffffffff16145b91505092915050565b8273ffffffffffffffffffffffffffffffffffffffff16611f4c82610dd6565b73ffffffffffffffffffffffffffffffffffffffff1614611fa2576040517f08c379a0000000000000000000000000000000000000000000000000000000008152600401611f9990614717565b60405180910390fd5b600073ffffffffffffffffffffffffffffffffffffffff168273ffffffffffffffffffffffffffffffffffffffff161415612012576040517f08c379a0000000000000000000000000000000000000000000000000000000008152600401612009906147a9565b60405180910390fd5b61201d838383612cbc565b612028600082611d95565b6001600360008573ffffffffffffffffffffffffffffffffffffffff1673ffffffffffffffffffffffffffffffffffffffff168152602001908152602001600020600082825461207891906147c9565b925050819055506001600360008473ffffffffffffffffffffffffffffffffffffffff1673ffffffffffffffffffffffffffffffffffffffff16815260200190815260200160002060008282546120cf91906147fd565b92505081905550816002600083815260200190815260200160002060006101000a81548173ffffffffffffffffffffffffffffffffffffffff021916908373ffffffffffffffffffffffffffffffffffffffff160217905550808273ffffffffffffffffffffffffffffffffffffffff168473ffffffffffffffffffffffffffffffffffffffff167fddf252ad1be2c89b69c2b068fc378daa952ba7f163c4a11628f55a4df523b3ef60405160405180910390a461218e838383612cc1565b505050565b60008060008084519050600092505b8082101561233d5760008583815181106121bf576121be614535565b5b602001015160f81c60f81b9050608060f81b817effffffffffffffffffffffffffffffffffffffffffffffffffffffffffffff1916101561220e5760018361220791906147fd565b9250612329565b60e060f81b817effffffffffffffffffffffffffffffffffffffffffffffffffffffffffffff191610156122505760028361224991906147fd565b9250612328565b60f060f81b817effffffffffffffffffffffffffffffffffffffffffffffffffffffffffffff191610156122925760038361228b91906147fd565b9250612327565b60f8801b817effffffffffffffffffffffffffffffffffffffffffffffffffffffffffffff191610156122d3576004836122cc91906147fd565b9250612326565b60fc60f81b817effffffffffffffffffffffffffffffffffffffffffffffffffffffffffffff191610156123155760058361230e91906147fd565b9250612325565b60068361232291906147fd565b92505b5b5b5b5b50828061233590614593565b9350506121a2565b829350505050919050565b8173ffffffffffffffffffffffffffffffffffffffff168373ffffffffffffffffffffffffffffffffffffffff1614156123b7576040517f08c379a00000000000000000000000000000000000000000000000000000000081526004016123ae9061489f565b60405180910390fd5b80600560008573ffffffffffffffffffffffffffffffffffffffff1673ffffffffffffffffffffffffffffffffffffffff16815260200190815260200160002060008473ffffffffffffffffffffffffffffffffffffffff1673ffffffffffffffffffffffffffffffffffffffff16815260200190815260200160002060006101000a81548160ff0219169083151502179055508173ffffffffffffffffffffffffffffffffffffffff168373ffffffffffffffffffffffffffffffffffffffff167f17307eab39ab6107e8899845ad3d59bd9653f200f220920489ca2b5937696c31836040516124a89190613283565b60405180910390a3505050565b6124c0848484611f2c565b6124cc84848484612cc6565b61250b576040517f08c379a000000000000000000000000000000000000000000000000000000000815260040161250290614931565b60405180910390fd5b50505050565b6125ab83838360405160240161252993929190614951565b6040516020818303038152906040527f2ced7cef000000000000000000000000000000000000000000000000000000007bffffffffffffffffffffffffffffffffffffffffffffffffffffffff19166020820180517bffffffffffffffffffffffffffffffffffffffffffffffffffffffff8381831617835250505050612c93565b505050565b606060405180602001604052806000815250905090565b60606125d282611d21565b612611576040517f08c379a000000000000000000000000000000000000000000000000000000000815260040161260890614a0f565b60405180910390fd5b600061261b6125b0565b9050600081511161263b5760405180602001604052806000815250612666565b806126458461267c565b604051602001612656929190614063565b6040516020818303038152906040525b915050919050565b600081600001549050919050565b606060008214156126c4576040518060400160405280600181526020017f300000000000000000000000000000000000000000000000000000000000000081525090506127d8565b600082905060005b600082146126f65780806126df90614593565b915050600a826126ef9190614a5e565b91506126cc565b60008167ffffffffffffffff8111156127125761271161358e565b5b6040519080825280601f01601f1916602001820160405280156127445781602001600182028036833780820191505090505b5090505b600085146127d15760018261275d91906147c9565b9150600a8561276c9190614a8f565b603061277891906147fd565b60f81b81838151811061278e5761278d614535565b5b60200101907effffffffffffffffffffffffffffffffffffffffffffffffffffffffffffff1916908160001a905350600a856127ca9190614a5e565b9450612748565b8093505050505b919050565b612879848484846040516024016127f79493929190614ac0565b6040516020818303038152906040527f9fd009f5000000000000000000000000000000000000000000000000000000007bffffffffffffffffffffffffffffffffffffffffffffffffffffffff19166020820180517bffffffffffffffffffffffffffffffffffffffffffffffffffffffff8381831617835250505050612c93565b50505050565b606060008251905060008114156128a85760405180602001604052806000815250915050612a12565b600060036002836128b991906147fd565b6128c39190614a5e565b60046128cf9190614b1a565b905060006020826128e091906147fd565b67ffffffffffffffff8111156128f9576128f861358e565b5b6040519080825280601f01601f19166020018201604052801561292b5781602001600182028036833780820191505090505b5090506000604051806060016040528060408152602001614e9c604091399050600181016020830160005b868110156129cf5760038101905062ffffff818a015116603f8160121c168401518060081b905060ff603f83600c1c1686015116810190508060081b905060ff603f8360061c1686015116810190508060081b905060ff603f831686015116810190508060e01b90508084526004840193505050612956565b5060038606600181146129e957600281146129f957612a04565b613d3d60f01b6002830352612a04565b603d60f81b60018303525b508484525050819450505050505b919050565b612aad81604051602401612a2b9190613337565b6040516020818303038152906040527f41304fac000000000000000000000000000000000000000000000000000000007bffffffffffffffffffffffffffffffffffffffffffffffffffffffff19166020820180517bffffffffffffffffffffffffffffffffffffffffffffffffffffffff8381831617835250505050612c93565b50565b612aca828260405180602001604052806000815250612e4e565b5050565b612ad782611d21565b612b16576040517f08c379a0000000000000000000000000000000000000000000000000000000008152600401612b0d90614be6565b60405180910390fd5b80600660008481526020019081526020016000209080519060200190612b3d92919061312c565b505050565b612bda8282604051602401612b58929190614c06565b6040516020818303038152906040527f319af333000000000000000000000000000000000000000000000000000000007bffffffffffffffffffffffffffffffffffffffffffffffffffffffff19166020820180517bffffffffffffffffffffffffffffffffffffffffffffffffffffffff8381831617835250505050612c93565b5050565b6001816000016000828254019250508190555050565b612c8e838383604051602401612c0c93929190614c36565b6040516020818303038152906040527fa3f5c739000000000000000000000000000000000000000000000000000000007bffffffffffffffffffffffffffffffffffffffffffffffffffffffff19166020820180517bffffffffffffffffffffffffffffffffffffffffffffffffffffffff8381831617835250505050612c93565b505050565b60008151905060006a636f6e736f6c652e6c6f679050602083016000808483855afa5050505050565b505050565b505050565b6000612ce78473ffffffffffffffffffffffffffffffffffffffff16612ea9565b15612e41578373ffffffffffffffffffffffffffffffffffffffff1663150b7a02612d10611d8d565b8786866040518563ffffffff1660e01b8152600401612d329493929190614cd0565b6020604051808303816000875af1925050508015612d6e57506040513d601f19601f82011682018060405250810190612d6b9190614d31565b60015b612df1573d8060008114612d9e576040519150601f19603f3d011682016040523d82523d6000602084013e612da3565b606091505b50600081511415612de9576040517f08c379a0000000000000000000000000000000000000000000000000000000008152600401612de090614931565b60405180910390fd5b805181602001fd5b63150b7a0260e01b7bffffffffffffffffffffffffffffffffffffffffffffffffffffffff1916817bffffffffffffffffffffffffffffffffffffffffffffffffffffffff191614915050612e46565b600190505b949350505050565b612e588383612ecc565b612e656000848484612cc6565b612ea4576040517f08c379a0000000000000000000000000000000000000000000000000000000008152600401612e9b90614931565b60405180910390fd5b505050565b6000808273ffffffffffffffffffffffffffffffffffffffff163b119050919050565b600073ffffffffffffffffffffffffffffffffffffffff168273ffffffffffffffffffffffffffffffffffffffff161415612f3c576040517f08c379a0000000000000000000000000000000000000000000000000000000008152600401612f3390614daa565b60405180910390fd5b612f4581611d21565b15612f85576040517f08c379a0000000000000000000000000000000000000000000000000000000008152600401612f7c90614e16565b60405180910390fd5b612f9160008383612cbc565b6001600360008473ffffffffffffffffffffffffffffffffffffffff1673ffffffffffffffffffffffffffffffffffffffff1681526020019081526020016000206000828254612fe191906147fd565b92505081905550816002600083815260200190815260200160002060006101000a81548173ffffffffffffffffffffffffffffffffffffffff021916908373ffffffffffffffffffffffffffffffffffffffff160217905550808273ffffffffffffffffffffffffffffffffffffffff16600073ffffffffffffffffffffffffffffffffffffffff167fddf252ad1be2c89b69c2b068fc378daa952ba7f163c4a11628f55a4df523b3ef60405160405180910390a46130a260008383612cc1565b5050565b8280546130b290613b07565b90600052602060002090601f0160209004810192826130d4576000855561311b565b82601f106130ed57803560ff191683800117855561311b565b8280016001018555821561311b579182015b8281111561311a5782358255916020019190600101906130ff565b5b50905061312891906131b2565b5090565b82805461313890613b07565b90600052602060002090601f01602090048101928261315a57600085556131a1565b82601f1061317357805160ff19168380011785556131a1565b828001600101855582156131a1579182015b828111156131a0578251825591602001919060010190613185565b5b5090506131ae91906131b2565b5090565b5b808211156131cb5760008160009055506001016131b3565b5090565b6000604051905090565b600080fd5b600080fd5b60007fffffffff0000000000000000000000000000000000000000000000000000000082169050919050565b613218816131e3565b811461322357600080fd5b50565b6000813590506132358161320f565b92915050565b600060208284031215613251576132506131d9565b5b600061325f84828501613226565b91505092915050565b60008115159050919050565b61327d81613268565b82525050565b60006020820190506132986000830184613274565b92915050565b600081519050919050565b600082825260208201905092915050565b60005b838110156132d85780820151818401526020810190506132bd565b838111156132e7576000848401525b50505050565b6000601f19601f8301169050919050565b60006133098261329e565b61331381856132a9565b93506133238185602086016132ba565b61332c816132ed565b840191505092915050565b6000602082019050818103600083015261335181846132fe565b905092915050565b6000819050919050565b61336c81613359565b811461337757600080fd5b50565b60008135905061338981613363565b92915050565b6000602082840312156133a5576133a46131d9565b5b60006133b38482850161337a565b91505092915050565b600073ffffffffffffffffffffffffffffffffffffffff82169050919050565b60006133e7826133bc565b9050919050565b6133f7816133dc565b82525050565b600060208201905061341260008301846133ee565b92915050565b613421816133dc565b811461342c57600080fd5b50565b60008135905061343e81613418565b92915050565b6000806040838503121561345b5761345a6131d9565b5b60006134698582860161342f565b925050602061347a8582860161337a565b9150509250929050565b600080fd5b600080fd5b600080fd5b60008083601f8401126134a9576134a8613484565b5b8235905067ffffffffffffffff8111156134c6576134c5613489565b5b6020830191508360018202830111156134e2576134e161348e565b5b9250929050565b60008060208385031215613500576134ff6131d9565b5b600083013567ffffffffffffffff81111561351e5761351d6131de565b5b61352a85828601613493565b92509250509250929050565b60008060006060848603121561354f5761354e6131d9565b5b600061355d8682870161342f565b935050602061356e8682870161342f565b925050604061357f8682870161337a565b9150509250925092565b600080fd5b7f4e487b7100000000000000000000000000000000000000000000000000000000600052604160045260246000fd5b6135c6826132ed565b810181811067ffffffffffffffff821117156135e5576135e461358e565b5b80604052505050565b60006135f86131cf565b905061360482826135bd565b919050565b600067ffffffffffffffff8211156136245761362361358e565b5b61362d826132ed565b9050602081019050919050565b82818337600083830152505050565b600061365c61365784613609565b6135ee565b90508281526020810184848401111561367857613677613589565b5b61368384828561363a565b509392505050565b600082601f8301126136a05761369f613484565b5b81356136b0848260208601613649565b91505092915050565b6000602082840312156136cf576136ce6131d9565b5b600082013567ffffffffffffffff8111156136ed576136ec6131de565b5b6136f98482850161368b565b91505092915050565b600060208284031215613718576137176131d9565b5b60006137268482850161342f565b91505092915050565b61373881613359565b82525050565b6000602082019050613753600083018461372f565b92915050565b61376281613268565b811461376d57600080fd5b50565b60008135905061377f81613759565b92915050565b6000806040838503121561379c5761379b6131d9565b5b60006137aa8582860161342f565b92505060206137bb85828601613770565b9150509250929050565b600067ffffffffffffffff8211156137e0576137df61358e565b5b6137e9826132ed565b9050602081019050919050565b6000613809613804846137c5565b6135ee565b90508281526020810184848401111561382557613824613589565b5b61383084828561363a565b509392505050565b600082601f83011261384d5761384c613484565b5b813561385d8482602086016137f6565b91505092915050565b600080600080608085870312156138805761387f6131d9565b5b600061388e8782880161342f565b945050602061389f8782880161342f565b93505060406138b08782880161337a565b925050606085013567ffffffffffffffff8111156138d1576138d06131de565b5b6138dd87828801613838565b91505092959194509250565b60008060008060408587031215613903576139026131d9565b5b600085013567ffffffffffffffff811115613921576139206131de565b5b61392d87828801613493565b9450945050602085013567ffffffffffffffff8111156139505761394f6131de565b5b61395c87828801613493565b925092505092959194509250565b60008060408385031215613981576139806131d9565b5b600061398f8582860161342f565b92505060206139a08582860161342f565b9150509250929050565b600081519050919050565b600082825260208201905092915050565b6000819050602082019050919050565b600082825260208201905092915050565b60006139f28261329e565b6139fc81856139d6565b9350613a0c8185602086016132ba565b613a15816132ed565b840191505092915050565b6000613a2c83836139e7565b905092915050565b6000602082019050919050565b6000613a4c826139aa565b613a5681856139b5565b935083602082028501613a68856139c6565b8060005b85811015613aa45784840389528151613a858582613a20565b9450613a9083613a34565b925060208a01995050600181019050613a6c565b50829750879550505050505092915050565b60006020820190508181036000830152613ad08184613a41565b905092915050565b7f4e487b7100000000000000000000000000000000000000000000000000000000600052602260045260246000fd5b60006002820490506001821680613b1f57607f821691505b60208210811415613b3357613b32613ad8565b5b50919050565b7f4552433732313a20617070726f76656420717565727920666f72206e6f6e657860008201527f697374656e7420746f6b656e0000000000000000000000000000000000000000602082015250565b6000613b95602c836132a9565b9150613ba082613b39565b604082019050919050565b60006020820190508181036000830152613bc481613b88565b9050919050565b7f4552433732313a20617070726f76616c20746f2063757272656e74206f776e6560008201527f7200000000000000000000000000000000000000000000000000000000000000602082015250565b6000613c276021836132a9565b9150613c3282613bcb565b604082019050919050565b60006020820190508181036000830152613c5681613c1a565b9050919050565b7f4552433732313a20617070726f76652063616c6c6572206973206e6f74206f7760008201527f6e6572206e6f7220617070726f76656420666f7220616c6c0000000000000000602082015250565b6000613cb96038836132a9565b9150613cc482613c5d565b604082019050919050565b60006020820190508181036000830152613ce881613cac565b9050919050565b600081905092915050565b6000613d068385613cef565b9350613d1383858461363a565b82840190509392505050565b6000613d2c828486613cfa565b91508190509392505050565b7f4552433732313a207472616e736665722063616c6c6572206973206e6f74206f60008201527f776e6572206e6f7220617070726f766564000000000000000000000000000000602082015250565b6000613d946031836132a9565b9150613d9f82613d38565b604082019050919050565b60006020820190508181036000830152613dc381613d87565b9050919050565b600081905092915050565b50565b6000613de5600083613dca565b9150613df082613dd5565b600082019050919050565b6000613e0682613dd8565b9150819050919050565b7f4661696c656420746f207769746864726177204d617469630000000000000000600082015250565b6000613e466018836132a9565b9150613e5182613e10565b602082019050919050565b60006020820190508181036000830152613e7581613e39565b9050919050565b7f4552433732313a206f776e657220717565727920666f72206e6f6e657869737460008201527f656e7420746f6b656e0000000000000000000000000000000000000000000000602082015250565b6000613ed86029836132a9565b9150613ee382613e7c565b604082019050919050565b60006020820190508181036000830152613f0781613ecb565b9050919050565b7f4552433732313a2062616c616e636520717565727920666f7220746865207a6560008201527f726f206164647265737300000000000000000000000000000000000000000000602082015250565b6000613f6a602a836132a9565b9150613f7582613f0e565b604082019050919050565b60006020820190508181036000830152613f9981613f5d565b9050919050565b7f45524337323155524953746f726167653a2055524920717565727920666f722060008201527f6e6f6e6578697374656e7420746f6b656e000000000000000000000000000000602082015250565b6000613ffc6031836132a9565b915061400782613fa0565b604082019050919050565b6000602082019050818103600083015261402b81613fef565b9050919050565b600061403d8261329e565b6140478185613cef565b93506140578185602086016132ba565b80840191505092915050565b600061406f8285614032565b915061407b8284614032565b91508190509392505050565b7f4e6f7420656e6f756768204d6174696320706169640000000000000000000000600082015250565b60006140bd6015836132a9565b91506140c882614087565b602082019050919050565b600060208201905081810360008301526140ec816140b0565b9050919050565b7f2e00000000000000000000000000000000000000000000000000000000000000600082015250565b6000614129600183613cef565b9150614134826140f3565b600182019050919050565b60008190508160005260206000209050919050565b6000815461416181613b07565b61416b8186613cef565b945060018216600081146141865760018114614197576141ca565b60ff198316865281860193506141ca565b6141a08561413f565b60005b838110156141c2578154818901526001820191506020810190506141a3565b838801955050505b50505092915050565b60006141e0828587613cfa565b91506141eb8261411c565b91506141f78284614154565b9150819050949350505050565b60006142108286614154565b915061421c8285614032565b91506142288284614154565b9150819050949350505050565b7f7b226e616d65223a202200000000000000000000000000000000000000000000600082015250565b600061426b600a83613cef565b915061427682614235565b600a82019050919050565b7f222c200000000000000000000000000000000000000000000000000000000000600082015250565b60006142b7600383613cef565b91506142c282614281565b600382019050919050565b7f226465736372697074696f6e223a20224120646f6d61696e206f6e207468652060008201527f4e696e6a61206e616d652073657276696365222c200000000000000000000000602082015250565b6000614329603583613cef565b9150614334826142cd565b603582019050919050565b7f22696d616765223a2022646174613a696d6167652f7376672b786d6c3b62617360008201527f6536342c00000000000000000000000000000000000000000000000000000000602082015250565b600061439b602483613cef565b91506143a68261433f565b602482019050919050565b7f226c656e677468223a2200000000000000000000000000000000000000000000600082015250565b60006143e7600a83613cef565b91506143f2826143b1565b600a82019050919050565b7f227d000000000000000000000000000000000000000000000000000000000000600082015250565b6000614433600283613cef565b915061443e826143fd565b600282019050919050565b60006144548261425e565b91506144608286614032565b915061446b826142aa565b91506144768261431c565b91506144818261438e565b915061448d8285614032565b9150614498826142aa565b91506144a3826143da565b91506144af8284614032565b91506144ba82614426565b9150819050949350505050565b7f646174613a6170706c69636174696f6e2f6a736f6e3b6261736536342c000000600082015250565b60006144fd601d83613cef565b9150614508826144c7565b601d82019050919050565b600061451e826144f0565b915061452a8284614032565b915081905092915050565b7f4e487b7100000000000000000000000000000000000000000000000000000000600052603260045260246000fd5b7f4e487b7100000000000000000000000000000000000000000000000000000000600052601160045260246000fd5b600061459e82613359565b91507fffffffffffffffffffffffffffffffffffffffffffffffffffffffffffffffff8214156145d1576145d0614564565b5b600182019050919050565b600060408201905081810360008301526145f681856132fe565b9050818103602083015261460a81846132fe565b90509392505050565b7f4552433732313a206f70657261746f7220717565727920666f72206e6f6e657860008201527f697374656e7420746f6b656e0000000000000000000000000000000000000000602082015250565b600061466f602c836132a9565b915061467a82614613565b604082019050919050565b6000602082019050818103600083015261469e81614662565b9050919050565b7f4552433732313a207472616e736665722066726f6d20696e636f72726563742060008201527f6f776e6572000000000000000000000000000000000000000000000000000000602082015250565b60006147016025836132a9565b915061470c826146a5565b604082019050919050565b60006020820190508181036000830152614730816146f4565b9050919050565b7f4552433732313a207472616e7366657220746f20746865207a65726f2061646460008201527f7265737300000000000000000000000000000000000000000000000000000000602082015250565b60006147936024836132a9565b915061479e82614737565b604082019050919050565b600060208201905081810360008301526147c281614786565b9050919050565b60006147d482613359565b91506147df83613359565b9250828210156147f2576147f1614564565b5b828203905092915050565b600061480882613359565b915061481383613359565b9250827fffffffffffffffffffffffffffffffffffffffffffffffffffffffffffffffff0382111561484857614847614564565b5b828201905092915050565b7f4552433732313a20617070726f766520746f2063616c6c657200000000000000600082015250565b60006148896019836132a9565b915061489482614853565b602082019050919050565b600060208201905081810360008301526148b88161487c565b9050919050565b7f4552433732313a207472616e7366657220746f206e6f6e20455243373231526560008201527f63656976657220696d706c656d656e7465720000000000000000000000000000602082015250565b600061491b6032836132a9565b9150614926826148bf565b604082019050919050565b6000602082019050818103600083015261494a8161490e565b9050919050565b6000606082019050818103600083015261496b81866132fe565b9050818103602083015261497f81856132fe565b9050818103604083015261499381846132fe565b9050949350505050565b7f4552433732314d657461646174613a2055524920717565727920666f72206e6f60008201527f6e6578697374656e7420746f6b656e0000000000000000000000000000000000602082015250565b60006149f9602f836132a9565b9150614a048261499d565b604082019050919050565b60006020820190508181036000830152614a28816149ec565b9050919050565b7f4e487b7100000000000000000000000000000000000000000000000000000000600052601260045260246000fd5b6000614a6982613359565b9150614a7483613359565b925082614a8457614a83614a2f565b5b828204905092915050565b6000614a9a82613359565b9150614aa583613359565b925082614ab557614ab4614a2f565b5b828206905092915050565b60006080820190508181036000830152614ada81876132fe565b90508181036020830152614aee81866132fe565b90508181036040830152614b0281856132fe565b9050614b11606083018461372f565b95945050505050565b6000614b2582613359565b9150614b3083613359565b9250817fffffffffffffffffffffffffffffffffffffffffffffffffffffffffffffffff0483118215151615614b6957614b68614564565b5b828202905092915050565b7f45524337323155524953746f726167653a2055524920736574206f66206e6f6e60008201527f6578697374656e7420746f6b656e000000000000000000000000000000000000602082015250565b6000614bd0602e836132a9565b9150614bdb82614b74565b604082019050919050565b60006020820190508181036000830152614bff81614bc3565b9050919050565b60006040820190508181036000830152614c2081856132fe565b9050614c2f60208301846133ee565b9392505050565b60006060820190508181036000830152614c5081866132fe565b9050614c5f602083018561372f565b8181036040830152614c7181846132fe565b9050949350505050565b600081519050919050565b600082825260208201905092915050565b6000614ca282614c7b565b614cac8185614c86565b9350614cbc8185602086016132ba565b614cc5816132ed565b840191505092915050565b6000608082019050614ce560008301876133ee565b614cf260208301866133ee565b614cff604083018561372f565b8181036060830152614d118184614c97565b905095945050505050565b600081519050614d2b8161320f565b92915050565b600060208284031215614d4757614d466131d9565b5b6000614d5584828501614d1c565b91505092915050565b7f4552433732313a206d696e7420746f20746865207a65726f2061646472657373600082015250565b6000614d946020836132a9565b9150614d9f82614d5e565b602082019050919050565b60006020820190508181036000830152614dc381614d87565b9050919050565b7f4552433732313a20746f6b656e20616c7265616479206d696e74656400000000600082015250565b6000614e00601c836132a9565b9150614e0b82614dca565b602082019050919050565b60006020820190508181036000830152614e2f81614df3565b905091905056fe5265676973746572696e672025732e2573206f6e2074686520636f6e7472616374207769746820746f6b656e49442025640a2d2d2d2d2d2d2d2d2d2d2d2d2d2d2d2d2d2d2d2d2d2d2d2d2d2d2d2d2d2d2d2d2d2d2d2d2d2d2d2d2d2d2d2d2d2d2d2d2d2d2d4142434445464748494a4b4c4d4e4f505152535455565758595a6162636465666768696a6b6c6d6e6f707172737475767778797a303132333435363738392b2fa26469706673582212202cf4020a4a7e1ada12fdb20005d6997066ed7d72fc51c243cff170a964df779a64736f6c634300080a00333c73766720786d6c6e733d22687474703a2f2f7777772e77332e6f72672f323030302f737667222077696474683d2232373022206865696768743d22323730222066696c6c3d226e6f6e65223e3c706174682066696c6c3d2275726c282342292220643d224d302030683237307632373048307a222f3e3c646566733e3c66696c7465722069643d22412220636f6c6f722d696e746572706f6c6174696f6e2d66696c746572733d2273524742222066696c746572556e6974733d227573657253706163654f6e55736522206865696768743d22323730222077696474683d22323730223e3c666544726f70536861646f772064783d2230222064793d22312220737464446576696174696f6e3d22322220666c6f6f642d6f7061636974793d222e323235222077696474683d223230302522206865696768743d2232303025222f3e3c2f66696c7465723e3c2f646566733e3c7061746820643d224d37322e3836332034322e393439632d2e3636382d2e3338372d312e3432362d2e35392d322e3139372d2e3539732d312e3532392e3230342d322e3139372e35396c2d31302e30383120362e3033322d362e383520332e3933342d31302e30383120362e303332632d2e3636382e3338372d312e3432362e35392d322e3139372e3539732d312e3532392d2e3230342d322e3139372d2e35396c2d382e3031332d342e37323161342e353220342e35322030203020312d312e3538392d312e363136632d2e3338342d2e3636352d2e3539342d312e3431382d2e3630382d322e313837762d392e3331632d2e3031332d2e3737352e3138352d312e3533382e3537322d322e32303861342e323520342e323520302030203120312e3632352d312e3539356c372e3838342d342e3539632e3636382d2e33383720312e3432362d2e353920322e3139372d2e353973312e3532392e32303420322e3139372e35396c372e38383420342e353961342e353220342e353220302030203120312e35383920312e363136632e3338342e3636352e35393420312e3431382e36303820322e31383776362e3033326c362e38352d342e303635762d362e303332632e3031332d2e3737352d2e3138352d312e3533382d2e3537322d322e32303861342e323520342e32352030203020302d312e3632352d312e3539354c34312e3435362032342e3539632d2e3636382d2e3338372d312e3432362d2e35392d322e3139372d2e3539732d312e3532392e3230342d322e3139372e35396c2d31342e38363420382e36353561342e323520342e32352030203020302d312e36323520312e353935632d2e3338372e36372d2e35383520312e3433342d2e35373220322e3230387631372e343431632d2e3031332e3737352e31383520312e3533382e35373220322e32303861342e323520342e323520302030203020312e36323520312e3539356c31342e38363420382e363535632e3636382e33383720312e3432362e353920322e3139372e353973312e3532392d2e32303420322e3139372d2e35396c31302e3038312d352e39303120362e38352d342e3036352031302e3038312d352e393031632e3636382d2e33383720312e3432362d2e353920322e3139372d2e353973312e3532392e32303420322e3139372e35396c372e38383420342e353961342e353220342e353220302030203120312e35383920312e363136632e3338342e3636352e35393420312e3431382e36303820322e31383776392e333131632e3031332e3737352d2e31383520312e3533382d2e35373220322e32303861342e323520342e32352030203020312d312e36323520312e3539356c2d372e38383420342e373231632d2e3636382e3338372d312e3432362e35392d322e3139372e3539732d312e3532392d2e3230342d322e3139372d2e35396c2d372e3838342d342e353961342e353220342e35322030203020312d312e3538392d312e363136632d2e3338352d2e3636352d2e3539342d312e3431382d2e3630382d322e313837762d362e3033326c2d362e383520342e30363576362e303332632d2e3031332e3737352e31383520312e3533382e35373220322e32303861342e323520342e323520302030203020312e36323520312e3539356c31342e38363420382e363535632e3636382e33383720312e3432362e353920322e3139372e353973312e3532392d2e32303420322e3139372d2e35396c31342e3836342d382e363535632e3635372d2e33393420312e3230342d2e393520312e3538392d312e363136732e3539342d312e3431382e3630392d322e3138375635352e353338632e3031332d2e3737352d2e3138352d312e3533382d2e3537322d322e32303861342e323520342e32352030203020302d312e3632352d312e3539356c2d31342e3939332d382e3738367a222066696c6c3d2223666666222f3e3c646566733e3c6c696e6561724772616469656e742069643d2242222078313d2230222079313d2230222078323d22323730222079323d2232373022206772616469656e74556e6974733d227573657253706163654f6e557365223e3c73746f702073746f702d636f6c6f723d2223636235656565222f3e3c73746f70206f66667365743d2231222073746f702d636f6c6f723d2223306364376534222073746f702d6f7061636974793d222e3939222f3e3c2f6c696e6561724772616469656e743e3c2f646566733e3c7465787420783d2233322e352220793d223233312220666f6e742d73697a653d223237222066696c6c3d2223666666222066696c7465723d2275726c282341292220666f6e742d66616d696c793d22506c7573204a616b617274612053616e732c44656a6156752053616e732c4e6f746f20436f6c6f7220456d6f6a692c4170706c6520436f6c6f7220456d6f6a692c73616e732d73657269662220666f6e742d7765696768743d22626f6c64223e",
  "linkReferences": {},
  "deployedLinkReferences": {}
}